:100000000C9446000C9466000C9466000C946600F8
:100010000C9466000C9466000C9466000C946600C8
:100020000C9466000C9466000C9466000C946600B8
:100030000C9466000C9466000C9466000C946600A8
:100040000C9466000C9466000C9466000C94660098
:100050000C9466000C9466000C9466000C94660088
:100060000C9466000C9466000C9466000C94660078
:100070000C9466000C9466000C9466000C94660068
:100080000C9466000C9466000C94660011241FBE4C
:10009000CFEFD0E4DEBFCDBF11E0A0E0B1E0E2E6FB
:1000A000F1E000E00BBF02C007900D92A030B10755
:1000B000D9F71BBE11E0A0E0B1E001C01D92A03055
:1000C000B107E1F70E9470000C94AF000C9400009F
:1000D00090E002C0959587956A95E2F78170089542
:1000E00010E7D0E6C0B180B118B8807164E00E941A
:1000F00068008823B9F3CF70CD3088F48C2F8A50F4
:10010000833078F08D5F833070F08E5F823068F0DE
:100110008E5F823060F0CC2361F0CD2F0BC0CFE337
:1001200009C0CEE307C0CCE305C0C8E303C0C12FBC
:1001300001C0C0E480B1807265E00E94680088233D
:1001400061F080B1807466E00E946800882319F431
:10015000C068C8B9C7CFC8B9C5CFC8B9C3CFF894AC
:02016000FFCFCF
:00000001FF
