:100000000C9446000C9466000C9466000C946600F8
:100010000C9466000C9466000C9466000C946600C8
:100020000C9466000C9466000C9466000C946600B8
:100030000C9466000C9466000C9466000C946600A8
:100040000C9466000C9466000C9466000C94660098
:100050000C9466000C9466000C9466000C94660088
:100060000C9466000C9466000C9466000C94660078
:100070000C9466000C9466000C9466000C94660068
:100080000C9466000C9466000C94660011241FBE4C
:10009000CFEFD0E4DEBFCDBF11E0A0E0B1E0E4E4FB
:1000A000F1E000E00BBF02C007900D92A030B10755
:1000B000D9F71BBE11E0A0E0B1E001C01D92A03055
:1000C000B107E1F70E9468000C94A0000C940000B6
:1000D00011B88FEF82B914B885B917B888B98AB941
:1000E0001BB861E02CE830E072E01BB850B183B17E
:1000F00046B190E0850F911D840F911D8D389105BB
:1001000010F06BB9F2CF50B146B1451730F440B1A1
:10011000E6B150E04E1B510905C046B1E0B150E0D8
:100120004E1B51094135510508F07BB9A901481B07
:10013000590BCA0149B18C7F9070842B8BB9D5CFF4
:04014000F894FFCF61
:00000001FF
