S024000070626F796C3030315F726C65756E3030355F6C6162315F70617274312E7372656329
S11300000C9446000C9466000C9466000C946600F4
S11300100C9466000C9466000C9466000C946600C4
S11300200C9466000C9466000C9466000C946600B4
S11300300C9466000C9466000C9466000C946600A4
S11300400C9466000C9466000C9466000C94660094
S11300500C9466000C9466000C9466000C94660084
S11300600C9466000C9466000C9466000C94660074
S11300700C9466000C9466000C9466000C94660064
S11300800C9466000C9466000C94660011241FBE48
S1130090CFEFD0E4DEBFCDBF11E0A0E0B1E0E0EFF0
S11300A0F0E000E00BBF02C007900D92A030B10752
S11300B0D9F71BBE11E0A0E0B1E001C01D92A03051
S11300C0B107E1F70E9468000C9476000C940000DC
S11300D011B88FEF82B984B915B881E0009B04C0D0
S11300E0019902C085B9FACF15B8F8CFF894FFCFBB
S9030000FC
