S024000070626F796C3030315F726C65756E3030355F6C6162315F70617274332E7372656327
S11300000C9446000C9466000C9466000C946600F4
S11300100C9466000C9466000C9466000C946600C4
S11300200C9466000C9466000C9466000C946600B4
S11300300C9466000C9466000C9466000C946600A4
S11300400C9466000C9466000C9466000C94660094
S11300500C9466000C9466000C9466000C94660084
S11300600C9466000C9466000C9466000C94660074
S11300700C9466000C9466000C9466000C94660064
S11300800C9466000C9466000C94660011241FBE48
S1130090CFEFD0E4DEBFCDBF11E0A0E0B1E0ECE0F3
S11300A0F1E000E00BBF02C007900D92A030B10751
S11300B0D9F71BBE11E0A0E0B1E001C01D92A03051
S11300C0B107E1F70E9468000C9484000C940000CE
S11300D011B88FEF82B984B915B843E034E020E851
S11300E080B180FD02C0832F01C0842F90B191FDA7
S11300F0815090B192FD815090B193FD815088233D
S10F010009F4822F88B9ECCFF894FFCFEB
S9030000FC
