:100000000C9446000C9466000C9466000C946600F8
:100010000C9466000C9466000C9466000C946600C8
:100020000C9466000C9466000C9466000C946600B8
:100030000C9466000C9466000C9466000C946600A8
:100040000C9466000C9466000C9466000C94660098
:100050000C9466000C9466000C9466000C94660088
:100060000C9466000C9466000C9466000C94660078
:100070000C9466000C9466000C9466000C94660068
:100080000C9466000C9466000C94660011241FBE4C
:10009000CFEFD0E4DEBFCDBF11E0A0E0B1E0ECE2F5
:1000A000F1E000E00BBF02C007900D92A030B10755
:1000B000D9F71BBE11E0A0E0B1E001C01D92A03055
:1000C000B107E1F70E9468000C9494000C940000C2
:1000D0002FE370E460E6E0E758E34CE33EE380B1F1
:1000E00096B118B88D3010F028B9F9CF982F9A50E2
:1000F000933010F438B9F3CF982F9750933010F411
:1001000048B9EDCF982F9550923010F458B9E7CFF9
:10011000982F9350923010F4E8B9E1CF882311F072
:0C01200068B9DDCF78B9DBCFF894FFCFD1
:00000001FF
