S024000070626F796C3030315F726C65756E3030355F6C6162325F70617274312E7372656328
S11300000C9446000C9466000C9466000C946600F4
S11300100C9466000C9466000C9466000C946600C4
S11300200C9466000C9466000C9466000C946600B4
S11300300C9466000C9466000C9466000C946600A4
S11300400C9466000C9466000C9466000C94660094
S11300500C9466000C9466000C9466000C94660084
S11300600C9466000C9466000C9466000C94660074
S11300700C9466000C9466000C9466000C94660064
S11300800C9466000C9466000C94660011241FBE48
S1130090CFEFD0E4DEBFCDBF11E0A0E0B1E0EEECE5
S11300A0F1E000E00BBF02C007900D92A030B10751
S11300B0D9F71BBE11E0A0E0B1E001C01D92A03051
S11300C0B107E1F70E9481000C94E5000C94000054
S11300D0CF93DF9300D0CDB7DEB789836A8389815C
S11300E0882F90E02A81222F30E0022E02C09595BD
S11300F087950A94E2F781700F900F90DF91CF916A
S11301000895CF93DF9300D000D00F92CDB7DEB720
S113011081E290E0FC01108282E290E02FEFFC018A
S1130120208384E290E0FC01108285E290E02FEFCE
S1130130FC01208387E290E02FEFFC01208388E21A
S113014090E0FC01108281E08A8380E290E0FC016F
S113015090818A8189238B8383E290E0FC019081E2
S11301608A8189238C8319821D8226C08B816D81AB
S11301700E946800882319F089818F5F89838C81AC
S11301806D810E946800882319F089818F5F8983BB
S11301908A81880F8A8380E290E0FC0190818A81C1
S11301A089238B8383E290E0FC0190818A818923F7
S11301B08C838D818F5F8D838D818830B8F288E246
S11101C090E02981FC012083BECFF894FFCF8C
S9030000FC
